{
  "_format": "hh-sol-artifact-1",
  "contractName": "Nft",
  "sourceName": "contracts/Nft.sol",
  "abi": [
    {
      "inputs": [],
      "stateMutability": "nonpayable",
      "type": "constructor"
    },
    {
      "anonymous": false,
      "inputs": [
        {
          "indexed": true,
          "internalType": "address",
          "name": "owner",
          "type": "address"
        },
        {
          "indexed": true,
          "internalType": "address",
          "name": "approved",
          "type": "address"
        },
        {
          "indexed": true,
          "internalType": "uint256",
          "name": "tokenId",
          "type": "uint256"
        }
      ],
      "name": "Approval",
      "type": "event"
    },
    {
      "anonymous": false,
      "inputs": [
        {
          "indexed": true,
          "internalType": "address",
          "name": "owner",
          "type": "address"
        },
        {
          "indexed": true,
          "internalType": "address",
          "name": "operator",
          "type": "address"
        },
        {
          "indexed": false,
          "internalType": "bool",
          "name": "approved",
          "type": "bool"
        }
      ],
      "name": "ApprovalForAll",
      "type": "event"
    },
    {
      "anonymous": false,
      "inputs": [
        {
          "indexed": true,
          "internalType": "address",
          "name": "previousOwner",
          "type": "address"
        },
        {
          "indexed": true,
          "internalType": "address",
          "name": "newOwner",
          "type": "address"
        }
      ],
      "name": "OwnershipTransferred",
      "type": "event"
    },
    {
      "anonymous": false,
      "inputs": [
        {
          "indexed": true,
          "internalType": "address",
          "name": "from",
          "type": "address"
        },
        {
          "indexed": true,
          "internalType": "address",
          "name": "to",
          "type": "address"
        },
        {
          "indexed": true,
          "internalType": "uint256",
          "name": "tokenId",
          "type": "uint256"
        }
      ],
      "name": "Transfer",
      "type": "event"
    },
    {
      "inputs": [
        {
          "internalType": "address",
          "name": "to",
          "type": "address"
        },
        {
          "internalType": "uint256",
          "name": "tokenId",
          "type": "uint256"
        }
      ],
      "name": "approve",
      "outputs": [],
      "stateMutability": "nonpayable",
      "type": "function"
    },
    {
      "inputs": [
        {
          "internalType": "address",
          "name": "owner",
          "type": "address"
        }
      ],
      "name": "balanceOf",
      "outputs": [
        {
          "internalType": "uint256",
          "name": "",
          "type": "uint256"
        }
      ],
      "stateMutability": "view",
      "type": "function"
    },
    {
      "inputs": [
        {
          "internalType": "uint256",
          "name": "tokenId",
          "type": "uint256"
        }
      ],
      "name": "getApproved",
      "outputs": [
        {
          "internalType": "address",
          "name": "",
          "type": "address"
        }
      ],
      "stateMutability": "view",
      "type": "function"
    },
    {
      "inputs": [
        {
          "internalType": "address",
          "name": "owner",
          "type": "address"
        },
        {
          "internalType": "address",
          "name": "operator",
          "type": "address"
        }
      ],
      "name": "isApprovedForAll",
      "outputs": [
        {
          "internalType": "bool",
          "name": "",
          "type": "bool"
        }
      ],
      "stateMutability": "view",
      "type": "function"
    },
    {
      "inputs": [
        {
          "internalType": "address",
          "name": "minter",
          "type": "address"
        },
        {
          "internalType": "string",
          "name": "tokenURI",
          "type": "string"
        }
      ],
      "name": "mintItem",
      "outputs": [
        {
          "internalType": "uint256",
          "name": "",
          "type": "uint256"
        }
      ],
      "stateMutability": "nonpayable",
      "type": "function"
    },
    {
      "inputs": [],
      "name": "name",
      "outputs": [
        {
          "internalType": "string",
          "name": "",
          "type": "string"
        }
      ],
      "stateMutability": "view",
      "type": "function"
    },
    {
      "inputs": [],
      "name": "owner",
      "outputs": [
        {
          "internalType": "address",
          "name": "",
          "type": "address"
        }
      ],
      "stateMutability": "view",
      "type": "function"
    },
    {
      "inputs": [
        {
          "internalType": "uint256",
          "name": "tokenId",
          "type": "uint256"
        }
      ],
      "name": "ownerOf",
      "outputs": [
        {
          "internalType": "address",
          "name": "",
          "type": "address"
        }
      ],
      "stateMutability": "view",
      "type": "function"
    },
    {
      "inputs": [],
      "name": "renounceOwnership",
      "outputs": [],
      "stateMutability": "nonpayable",
      "type": "function"
    },
    {
      "inputs": [
        {
          "internalType": "address",
          "name": "from",
          "type": "address"
        },
        {
          "internalType": "address",
          "name": "to",
          "type": "address"
        },
        {
          "internalType": "uint256",
          "name": "tokenId",
          "type": "uint256"
        }
      ],
      "name": "safeTransferFrom",
      "outputs": [],
      "stateMutability": "nonpayable",
      "type": "function"
    },
    {
      "inputs": [
        {
          "internalType": "address",
          "name": "from",
          "type": "address"
        },
        {
          "internalType": "address",
          "name": "to",
          "type": "address"
        },
        {
          "internalType": "uint256",
          "name": "tokenId",
          "type": "uint256"
        },
        {
          "internalType": "bytes",
          "name": "_data",
          "type": "bytes"
        }
      ],
      "name": "safeTransferFrom",
      "outputs": [],
      "stateMutability": "nonpayable",
      "type": "function"
    },
    {
      "inputs": [
        {
          "internalType": "address",
          "name": "operator",
          "type": "address"
        },
        {
          "internalType": "bool",
          "name": "approved",
          "type": "bool"
        }
      ],
      "name": "setApprovalForAll",
      "outputs": [],
      "stateMutability": "nonpayable",
      "type": "function"
    },
    {
      "inputs": [
        {
          "internalType": "bytes4",
          "name": "interfaceId",
          "type": "bytes4"
        }
      ],
      "name": "supportsInterface",
      "outputs": [
        {
          "internalType": "bool",
          "name": "",
          "type": "bool"
        }
      ],
      "stateMutability": "view",
      "type": "function"
    },
    {
      "inputs": [],
      "name": "symbol",
      "outputs": [
        {
          "internalType": "string",
          "name": "",
          "type": "string"
        }
      ],
      "stateMutability": "view",
      "type": "function"
    },
    {
      "inputs": [
        {
          "internalType": "uint256",
          "name": "tokenId",
          "type": "uint256"
        }
      ],
      "name": "tokenURI",
      "outputs": [
        {
          "internalType": "string",
          "name": "",
          "type": "string"
        }
      ],
      "stateMutability": "view",
      "type": "function"
    },
    {
      "inputs": [],
      "name": "totalSupply",
      "outputs": [
        {
          "internalType": "uint256",
          "name": "",
          "type": "uint256"
        }
      ],
      "stateMutability": "view",
      "type": "function"
    },
    {
      "inputs": [
        {
          "internalType": "address",
          "name": "from",
          "type": "address"
        },
        {
          "internalType": "address",
          "name": "to",
          "type": "address"
        },
        {
          "internalType": "uint256",
          "name": "tokenId",
          "type": "uint256"
        }
      ],
      "name": "transferFrom",
      "outputs": [],
      "stateMutability": "nonpayable",
      "type": "function"
    },
    {
      "inputs": [
        {
          "internalType": "address",
          "name": "newOwner",
          "type": "address"
        }
      ],
      "name": "transferOwnership",
      "outputs": [],
      "stateMutability": "nonpayable",
      "type": "function"
    }
  ],
  "bytecode": "0x60806040523480156200001157600080fd5b506040518060400160405280600981526020017f7369676874206e667400000000000000000000000000000000000000000000008152506040518060400160405280600481526020017f736e667400000000000000000000000000000000000000000000000000000000815250816000908051906020019062000096929190620001a6565b508060019080519060200190620000af929190620001a6565b505050620000d2620000c6620000d860201b60201c565b620000e060201b60201c565b620002bb565b600033905090565b6000600760009054906101000a900473ffffffffffffffffffffffffffffffffffffffff16905081600760006101000a81548173ffffffffffffffffffffffffffffffffffffffff021916908373ffffffffffffffffffffffffffffffffffffffff1602179055508173ffffffffffffffffffffffffffffffffffffffff168173ffffffffffffffffffffffffffffffffffffffff167f8be0079c531659141344cd1fd0a4f28419497f9722a3daafe3b4186f6b6457e060405160405180910390a35050565b828054620001b49062000256565b90600052602060002090601f016020900481019282620001d8576000855562000224565b82601f10620001f357805160ff191683800117855562000224565b8280016001018555821562000224579182015b828111156200022357825182559160200191906001019062000206565b5b50905062000233919062000237565b5090565b5b808211156200025257600081600090555060010162000238565b5090565b600060028204905060018216806200026f57607f821691505b602082108114156200028657620002856200028c565b5b50919050565b7f4e487b7100000000000000000000000000000000000000000000000000000000600052602260045260246000fd5b61302380620002cb6000396000f3fe608060405234801561001057600080fd5b50600436106101165760003560e01c806370a08231116100a2578063a22cb46511610071578063a22cb465146102e1578063b88d4fde146102fd578063c87b56dd14610319578063e985e9c514610349578063f2fde38b1461037957610116565b806370a082311461026b578063715018a61461029b5780638da5cb5b146102a557806395d89b41146102c357610116565b8063110bcd45116100e9578063110bcd45146101b557806318160ddd146101e557806323b872dd1461020357806342842e0e1461021f5780636352211e1461023b57610116565b806301ffc9a71461011b57806306fdde031461014b578063081812fc14610169578063095ea7b314610199575b600080fd5b61013560048036038101906101309190611fd2565b610395565b604051610142919061241e565b60405180910390f35b610153610477565b6040516101609190612439565b60405180910390f35b610183600480360381019061017e9190612024565b610509565b60405161019091906123b7565b60405180910390f35b6101b360048036038101906101ae9190611f96565b61058e565b005b6101cf60048036038101906101ca9190611f42565b6106a6565b6040516101dc919061269b565b60405180910390f35b6101ed61075a565b6040516101fa919061269b565b60405180910390f35b61021d60048036038101906102189190611e3c565b61076b565b005b61023960048036038101906102349190611e3c565b6107cb565b005b61025560048036038101906102509190612024565b6107eb565b60405161026291906123b7565b60405180910390f35b61028560048036038101906102809190611dd7565b61089d565b604051610292919061269b565b60405180910390f35b6102a3610955565b005b6102ad6109dd565b6040516102ba91906123b7565b60405180910390f35b6102cb610a07565b6040516102d89190612439565b60405180910390f35b6102fb60048036038101906102f69190611f06565b610a99565b005b61031760048036038101906103129190611e8b565b610aaf565b005b610333600480360381019061032e9190612024565b610b11565b6040516103409190612439565b60405180910390f35b610363600480360381019061035e9190611e00565b610c63565b604051610370919061241e565b60405180910390f35b610393600480360381019061038e9190611dd7565b610cf7565b005b60007f80ac58cd000000000000000000000000000000000000000000000000000000007bffffffffffffffffffffffffffffffffffffffffffffffffffffffff1916827bffffffffffffffffffffffffffffffffffffffffffffffffffffffff1916148061046057507f5b5e139f000000000000000000000000000000000000000000000000000000007bffffffffffffffffffffffffffffffffffffffffffffffffffffffff1916827bffffffffffffffffffffffffffffffffffffffffffffffffffffffff1916145b80610470575061046f82610def565b5b9050919050565b606060008054610486906128f1565b80601f01602080910402602001604051908101604052809291908181526020018280546104b2906128f1565b80156104ff5780601f106104d4576101008083540402835291602001916104ff565b820191906000526020600020905b8154815290600101906020018083116104e257829003601f168201915b5050505050905090565b600061051482610e59565b610553576040517f08c379a000000000000000000000000000000000000000000000000000000000815260040161054a906125fb565b60405180910390fd5b6004600083815260200190815260200160002060009054906101000a900473ffffffffffffffffffffffffffffffffffffffff169050919050565b6000610599826107eb565b90508073ffffffffffffffffffffffffffffffffffffffff168373ffffffffffffffffffffffffffffffffffffffff16141561060a576040517f08c379a00000000000000000000000000000000000000000000000000000000081526004016106019061265b565b60405180910390fd5b8073ffffffffffffffffffffffffffffffffffffffff16610629610ec5565b73ffffffffffffffffffffffffffffffffffffffff161480610658575061065781610652610ec5565b610c63565b5b610697576040517f08c379a000000000000000000000000000000000000000000000000000000000815260040161068e9061253b565b60405180910390fd5b6106a18383610ecd565b505050565b60006106b0610ec5565b73ffffffffffffffffffffffffffffffffffffffff166106ce6109dd565b73ffffffffffffffffffffffffffffffffffffffff1614610724576040517f08c379a000000000000000000000000000000000000000000000000000000000815260040161071b9061261b565b60405180910390fd5b61072e6008610f86565b600061073a6008610f9c565b90506107468482610faa565b6107508184611184565b8091505092915050565b60006107666008610f9c565b905090565b61077c610776610ec5565b826111f8565b6107bb576040517f08c379a00000000000000000000000000000000000000000000000000000000081526004016107b29061267b565b60405180910390fd5b6107c68383836112d6565b505050565b6107e683838360405180602001604052806000815250610aaf565b505050565b6000806002600084815260200190815260200160002060009054906101000a900473ffffffffffffffffffffffffffffffffffffffff169050600073ffffffffffffffffffffffffffffffffffffffff168173ffffffffffffffffffffffffffffffffffffffff161415610894576040517f08c379a000000000000000000000000000000000000000000000000000000000815260040161088b9061257b565b60405180910390fd5b80915050919050565b60008073ffffffffffffffffffffffffffffffffffffffff168273ffffffffffffffffffffffffffffffffffffffff16141561090e576040517f08c379a00000000000000000000000000000000000000000000000000000000081526004016109059061255b565b60405180910390fd5b600360008373ffffffffffffffffffffffffffffffffffffffff1673ffffffffffffffffffffffffffffffffffffffff168152602001908152602001600020549050919050565b61095d610ec5565b73ffffffffffffffffffffffffffffffffffffffff1661097b6109dd565b73ffffffffffffffffffffffffffffffffffffffff16146109d1576040517f08c379a00000000000000000000000000000000000000000000000000000000081526004016109c89061261b565b60405180910390fd5b6109db600061153d565b565b6000600760009054906101000a900473ffffffffffffffffffffffffffffffffffffffff16905090565b606060018054610a16906128f1565b80601f0160208091040260200160405190810160405280929190818152602001828054610a42906128f1565b8015610a8f5780601f10610a6457610100808354040283529160200191610a8f565b820191906000526020600020905b815481529060010190602001808311610a7257829003601f168201915b5050505050905090565b610aab610aa4610ec5565b8383611603565b5050565b610ac0610aba610ec5565b836111f8565b610aff576040517f08c379a0000000000000000000000000000000000000000000000000000000008152600401610af69061267b565b60405180910390fd5b610b0b84848484611770565b50505050565b6060610b1c82610e59565b610b5b576040517f08c379a0000000000000000000000000000000000000000000000000000000008152600401610b52906125db565b60405180910390fd5b6000600660008481526020019081526020016000208054610b7b906128f1565b80601f0160208091040260200160405190810160405280929190818152602001828054610ba7906128f1565b8015610bf45780601f10610bc957610100808354040283529160200191610bf4565b820191906000526020600020905b815481529060010190602001808311610bd757829003601f168201915b505050505090506000610c056117cc565b9050600081511415610c1b578192505050610c5e565b600082511115610c50578082604051602001610c38929190612393565b60405160208183030381529060405292505050610c5e565b610c59846117e3565b925050505b919050565b6000600560008473ffffffffffffffffffffffffffffffffffffffff1673ffffffffffffffffffffffffffffffffffffffff16815260200190815260200160002060008373ffffffffffffffffffffffffffffffffffffffff1673ffffffffffffffffffffffffffffffffffffffff16815260200190815260200160002060009054906101000a900460ff16905092915050565b610cff610ec5565b73ffffffffffffffffffffffffffffffffffffffff16610d1d6109dd565b73ffffffffffffffffffffffffffffffffffffffff1614610d73576040517f08c379a0000000000000000000000000000000000000000000000000000000008152600401610d6a9061261b565b60405180910390fd5b600073ffffffffffffffffffffffffffffffffffffffff168173ffffffffffffffffffffffffffffffffffffffff161415610de3576040517f08c379a0000000000000000000000000000000000000000000000000000000008152600401610dda9061247b565b60405180910390fd5b610dec8161153d565b50565b60007f01ffc9a7000000000000000000000000000000000000000000000000000000007bffffffffffffffffffffffffffffffffffffffffffffffffffffffff1916827bffffffffffffffffffffffffffffffffffffffffffffffffffffffff1916149050919050565b60008073ffffffffffffffffffffffffffffffffffffffff166002600084815260200190815260200160002060009054906101000a900473ffffffffffffffffffffffffffffffffffffffff1673ffffffffffffffffffffffffffffffffffffffff1614159050919050565b600033905090565b816004600083815260200190815260200160002060006101000a81548173ffffffffffffffffffffffffffffffffffffffff021916908373ffffffffffffffffffffffffffffffffffffffff160217905550808273ffffffffffffffffffffffffffffffffffffffff16610f40836107eb565b73ffffffffffffffffffffffffffffffffffffffff167f8c5be1e5ebec7d5bd14f71427d1e84f3dd0314c0f7b2291e5b200ac8c7c3b92560405160405180910390a45050565b6001816000016000828254019250508190555050565b600081600001549050919050565b600073ffffffffffffffffffffffffffffffffffffffff168273ffffffffffffffffffffffffffffffffffffffff16141561101a576040517f08c379a0000000000000000000000000000000000000000000000000000000008152600401611011906125bb565b60405180910390fd5b61102381610e59565b15611063576040517f08c379a000000000000000000000000000000000000000000000000000000000815260040161105a906124bb565b60405180910390fd5b61106f6000838361188a565b6001600360008473ffffffffffffffffffffffffffffffffffffffff1673ffffffffffffffffffffffffffffffffffffffff16815260200190815260200160002060008282546110bf9190612780565b92505081905550816002600083815260200190815260200160002060006101000a81548173ffffffffffffffffffffffffffffffffffffffff021916908373ffffffffffffffffffffffffffffffffffffffff160217905550808273ffffffffffffffffffffffffffffffffffffffff16600073ffffffffffffffffffffffffffffffffffffffff167fddf252ad1be2c89b69c2b068fc378daa952ba7f163c4a11628f55a4df523b3ef60405160405180910390a46111806000838361188f565b5050565b61118d82610e59565b6111cc576040517f08c379a00000000000000000000000000000000000000000000000000000000081526004016111c39061259b565b60405180910390fd5b806006600084815260200190815260200160002090805190602001906111f3929190611bfb565b505050565b600061120382610e59565b611242576040517f08c379a00000000000000000000000000000000000000000000000000000000081526004016112399061251b565b60405180910390fd5b600061124d836107eb565b90508073ffffffffffffffffffffffffffffffffffffffff168473ffffffffffffffffffffffffffffffffffffffff1614806112bc57508373ffffffffffffffffffffffffffffffffffffffff166112a484610509565b73ffffffffffffffffffffffffffffffffffffffff16145b806112cd57506112cc8185610c63565b5b91505092915050565b8273ffffffffffffffffffffffffffffffffffffffff166112f6826107eb565b73ffffffffffffffffffffffffffffffffffffffff161461134c576040517f08c379a00000000000000000000000000000000000000000000000000000000081526004016113439061249b565b60405180910390fd5b600073ffffffffffffffffffffffffffffffffffffffff168273ffffffffffffffffffffffffffffffffffffffff1614156113bc576040517f08c379a00000000000000000000000000000000000000000000000000000000081526004016113b3906124db565b60405180910390fd5b6113c783838361188a565b6113d2600082610ecd565b6001600360008573ffffffffffffffffffffffffffffffffffffffff1673ffffffffffffffffffffffffffffffffffffffff16815260200190815260200160002060008282546114229190612807565b925050819055506001600360008473ffffffffffffffffffffffffffffffffffffffff1673ffffffffffffffffffffffffffffffffffffffff16815260200190815260200160002060008282546114799190612780565b92505081905550816002600083815260200190815260200160002060006101000a81548173ffffffffffffffffffffffffffffffffffffffff021916908373ffffffffffffffffffffffffffffffffffffffff160217905550808273ffffffffffffffffffffffffffffffffffffffff168473ffffffffffffffffffffffffffffffffffffffff167fddf252ad1be2c89b69c2b068fc378daa952ba7f163c4a11628f55a4df523b3ef60405160405180910390a461153883838361188f565b505050565b6000600760009054906101000a900473ffffffffffffffffffffffffffffffffffffffff16905081600760006101000a81548173ffffffffffffffffffffffffffffffffffffffff021916908373ffffffffffffffffffffffffffffffffffffffff1602179055508173ffffffffffffffffffffffffffffffffffffffff168173ffffffffffffffffffffffffffffffffffffffff167f8be0079c531659141344cd1fd0a4f28419497f9722a3daafe3b4186f6b6457e060405160405180910390a35050565b8173ffffffffffffffffffffffffffffffffffffffff168373ffffffffffffffffffffffffffffffffffffffff161415611672576040517f08c379a0000000000000000000000000000000000000000000000000000000008152600401611669906124fb565b60405180910390fd5b80600560008573ffffffffffffffffffffffffffffffffffffffff1673ffffffffffffffffffffffffffffffffffffffff16815260200190815260200160002060008473ffffffffffffffffffffffffffffffffffffffff1673ffffffffffffffffffffffffffffffffffffffff16815260200190815260200160002060006101000a81548160ff0219169083151502179055508173ffffffffffffffffffffffffffffffffffffffff168373ffffffffffffffffffffffffffffffffffffffff167f17307eab39ab6107e8899845ad3d59bd9653f200f220920489ca2b5937696c3183604051611763919061241e565b60405180910390a3505050565b61177b8484846112d6565b61178784848484611894565b6117c6576040517f08c379a00000000000000000000000000000000000000000000000000000000081526004016117bd9061245b565b60405180910390fd5b50505050565b606060405180602001604052806000815250905090565b60606117ee82610e59565b61182d576040517f08c379a00000000000000000000000000000000000000000000000000000000081526004016118249061263b565b60405180910390fd5b60006118376117cc565b905060008151116118575760405180602001604052806000815250611882565b8061186184611a2b565b604051602001611872929190612393565b6040516020818303038152906040525b915050919050565b505050565b505050565b60006118b58473ffffffffffffffffffffffffffffffffffffffff16611bd8565b15611a1e578373ffffffffffffffffffffffffffffffffffffffff1663150b7a026118de610ec5565b8786866040518563ffffffff1660e01b815260040161190094939291906123d2565b602060405180830381600087803b15801561191a57600080fd5b505af192505050801561194b57506040513d601f19601f820116820180604052508101906119489190611ffb565b60015b6119ce573d806000811461197b576040519150601f19603f3d011682016040523d82523d6000602084013e611980565b606091505b506000815114156119c6576040517f08c379a00000000000000000000000000000000000000000000000000000000081526004016119bd9061245b565b60405180910390fd5b805181602001fd5b63150b7a0260e01b7bffffffffffffffffffffffffffffffffffffffffffffffffffffffff1916817bffffffffffffffffffffffffffffffffffffffffffffffffffffffff191614915050611a23565b600190505b949350505050565b60606000821415611a73576040518060400160405280600181526020017f30000000000000000000000000000000000000000000000000000000000000008152509050611bd3565b600082905060005b60008214611aa5578080611a8e90612954565b915050600a82611a9e91906127d6565b9150611a7b565b60008167ffffffffffffffff811115611ae7577f4e487b7100000000000000000000000000000000000000000000000000000000600052604160045260246000fd5b6040519080825280601f01601f191660200182016040528015611b195781602001600182028036833780820191505090505b5090505b60008514611bcc57600182611b329190612807565b9150600a85611b41919061299d565b6030611b4d9190612780565b60f81b818381518110611b89577f4e487b7100000000000000000000000000000000000000000000000000000000600052603260045260246000fd5b60200101907effffffffffffffffffffffffffffffffffffffffffffffffffffffffffffff1916908160001a905350600a85611bc591906127d6565b9450611b1d565b8093505050505b919050565b6000808273ffffffffffffffffffffffffffffffffffffffff163b119050919050565b828054611c07906128f1565b90600052602060002090601f016020900481019282611c295760008555611c70565b82601f10611c4257805160ff1916838001178555611c70565b82800160010185558215611c70579182015b82811115611c6f578251825591602001919060010190611c54565b5b509050611c7d9190611c81565b5090565b5b80821115611c9a576000816000905550600101611c82565b5090565b6000611cb1611cac846126db565b6126b6565b905082815260208101848484011115611cc957600080fd5b611cd48482856128af565b509392505050565b6000611cef611cea8461270c565b6126b6565b905082815260208101848484011115611d0757600080fd5b611d128482856128af565b509392505050565b600081359050611d2981612f91565b92915050565b600081359050611d3e81612fa8565b92915050565b600081359050611d5381612fbf565b92915050565b600081519050611d6881612fbf565b92915050565b600082601f830112611d7f57600080fd5b8135611d8f848260208601611c9e565b91505092915050565b600082601f830112611da957600080fd5b8135611db9848260208601611cdc565b91505092915050565b600081359050611dd181612fd6565b92915050565b600060208284031215611de957600080fd5b6000611df784828501611d1a565b91505092915050565b60008060408385031215611e1357600080fd5b6000611e2185828601611d1a565b9250506020611e3285828601611d1a565b9150509250929050565b600080600060608486031215611e5157600080fd5b6000611e5f86828701611d1a565b9350506020611e7086828701611d1a565b9250506040611e8186828701611dc2565b9150509250925092565b60008060008060808587031215611ea157600080fd5b6000611eaf87828801611d1a565b9450506020611ec087828801611d1a565b9350506040611ed187828801611dc2565b925050606085013567ffffffffffffffff811115611eee57600080fd5b611efa87828801611d6e565b91505092959194509250565b60008060408385031215611f1957600080fd5b6000611f2785828601611d1a565b9250506020611f3885828601611d2f565b9150509250929050565b60008060408385031215611f5557600080fd5b6000611f6385828601611d1a565b925050602083013567ffffffffffffffff811115611f8057600080fd5b611f8c85828601611d98565b9150509250929050565b60008060408385031215611fa957600080fd5b6000611fb785828601611d1a565b9250506020611fc885828601611dc2565b9150509250929050565b600060208284031215611fe457600080fd5b6000611ff284828501611d44565b91505092915050565b60006020828403121561200d57600080fd5b600061201b84828501611d59565b91505092915050565b60006020828403121561203657600080fd5b600061204484828501611dc2565b91505092915050565b6120568161283b565b82525050565b6120658161284d565b82525050565b60006120768261273d565b6120808185612753565b93506120908185602086016128be565b61209981612a8a565b840191505092915050565b60006120af82612748565b6120b98185612764565b93506120c98185602086016128be565b6120d281612a8a565b840191505092915050565b60006120e882612748565b6120f28185612775565b93506121028185602086016128be565b80840191505092915050565b600061211b603283612764565b915061212682612a9b565b604082019050919050565b600061213e602683612764565b915061214982612aea565b604082019050919050565b6000612161602583612764565b915061216c82612b39565b604082019050919050565b6000612184601c83612764565b915061218f82612b88565b602082019050919050565b60006121a7602483612764565b91506121b282612bb1565b604082019050919050565b60006121ca601983612764565b91506121d582612c00565b602082019050919050565b60006121ed602c83612764565b91506121f882612c29565b604082019050919050565b6000612210603883612764565b915061221b82612c78565b604082019050919050565b6000612233602a83612764565b915061223e82612cc7565b604082019050919050565b6000612256602983612764565b915061226182612d16565b604082019050919050565b6000612279602e83612764565b915061228482612d65565b604082019050919050565b600061229c602083612764565b91506122a782612db4565b602082019050919050565b60006122bf603183612764565b91506122ca82612ddd565b604082019050919050565b60006122e2602c83612764565b91506122ed82612e2c565b604082019050919050565b6000612305602083612764565b915061231082612e7b565b602082019050919050565b6000612328602f83612764565b915061233382612ea4565b604082019050919050565b600061234b602183612764565b915061235682612ef3565b604082019050919050565b600061236e603183612764565b915061237982612f42565b604082019050919050565b61238d816128a5565b82525050565b600061239f82856120dd565b91506123ab82846120dd565b91508190509392505050565b60006020820190506123cc600083018461204d565b92915050565b60006080820190506123e7600083018761204d565b6123f4602083018661204d565b6124016040830185612384565b8181036060830152612413818461206b565b905095945050505050565b6000602082019050612433600083018461205c565b92915050565b6000602082019050818103600083015261245381846120a4565b905092915050565b600060208201905081810360008301526124748161210e565b9050919050565b6000602082019050818103600083015261249481612131565b9050919050565b600060208201905081810360008301526124b481612154565b9050919050565b600060208201905081810360008301526124d481612177565b9050919050565b600060208201905081810360008301526124f48161219a565b9050919050565b60006020820190508181036000830152612514816121bd565b9050919050565b60006020820190508181036000830152612534816121e0565b9050919050565b6000602082019050818103600083015261255481612203565b9050919050565b6000602082019050818103600083015261257481612226565b9050919050565b6000602082019050818103600083015261259481612249565b9050919050565b600060208201905081810360008301526125b48161226c565b9050919050565b600060208201905081810360008301526125d48161228f565b9050919050565b600060208201905081810360008301526125f4816122b2565b9050919050565b60006020820190508181036000830152612614816122d5565b9050919050565b60006020820190508181036000830152612634816122f8565b9050919050565b600060208201905081810360008301526126548161231b565b9050919050565b600060208201905081810360008301526126748161233e565b9050919050565b6000602082019050818103600083015261269481612361565b9050919050565b60006020820190506126b06000830184612384565b92915050565b60006126c06126d1565b90506126cc8282612923565b919050565b6000604051905090565b600067ffffffffffffffff8211156126f6576126f5612a5b565b5b6126ff82612a8a565b9050602081019050919050565b600067ffffffffffffffff82111561272757612726612a5b565b5b61273082612a8a565b9050602081019050919050565b600081519050919050565b600081519050919050565b600082825260208201905092915050565b600082825260208201905092915050565b600081905092915050565b600061278b826128a5565b9150612796836128a5565b9250827fffffffffffffffffffffffffffffffffffffffffffffffffffffffffffffffff038211156127cb576127ca6129ce565b5b828201905092915050565b60006127e1826128a5565b91506127ec836128a5565b9250826127fc576127fb6129fd565b5b828204905092915050565b6000612812826128a5565b915061281d836128a5565b9250828210156128305761282f6129ce565b5b828203905092915050565b600061284682612885565b9050919050565b60008115159050919050565b60007fffffffff0000000000000000000000000000000000000000000000000000000082169050919050565b600073ffffffffffffffffffffffffffffffffffffffff82169050919050565b6000819050919050565b82818337600083830152505050565b60005b838110156128dc5780820151818401526020810190506128c1565b838111156128eb576000848401525b50505050565b6000600282049050600182168061290957607f821691505b6020821081141561291d5761291c612a2c565b5b50919050565b61292c82612a8a565b810181811067ffffffffffffffff8211171561294b5761294a612a5b565b5b80604052505050565b600061295f826128a5565b91507fffffffffffffffffffffffffffffffffffffffffffffffffffffffffffffffff821415612992576129916129ce565b5b600182019050919050565b60006129a8826128a5565b91506129b3836128a5565b9250826129c3576129c26129fd565b5b828206905092915050565b7f4e487b7100000000000000000000000000000000000000000000000000000000600052601160045260246000fd5b7f4e487b7100000000000000000000000000000000000000000000000000000000600052601260045260246000fd5b7f4e487b7100000000000000000000000000000000000000000000000000000000600052602260045260246000fd5b7f4e487b7100000000000000000000000000000000000000000000000000000000600052604160045260246000fd5b6000601f19601f8301169050919050565b7f4552433732313a207472616e7366657220746f206e6f6e20455243373231526560008201527f63656976657220696d706c656d656e7465720000000000000000000000000000602082015250565b7f4f776e61626c653a206e6577206f776e657220697320746865207a65726f206160008201527f6464726573730000000000000000000000000000000000000000000000000000602082015250565b7f4552433732313a207472616e736665722066726f6d20696e636f72726563742060008201527f6f776e6572000000000000000000000000000000000000000000000000000000602082015250565b7f4552433732313a20746f6b656e20616c7265616479206d696e74656400000000600082015250565b7f4552433732313a207472616e7366657220746f20746865207a65726f2061646460008201527f7265737300000000000000000000000000000000000000000000000000000000602082015250565b7f4552433732313a20617070726f766520746f2063616c6c657200000000000000600082015250565b7f4552433732313a206f70657261746f7220717565727920666f72206e6f6e657860008201527f697374656e7420746f6b656e0000000000000000000000000000000000000000602082015250565b7f4552433732313a20617070726f76652063616c6c6572206973206e6f74206f7760008201527f6e6572206e6f7220617070726f76656420666f7220616c6c0000000000000000602082015250565b7f4552433732313a2062616c616e636520717565727920666f7220746865207a6560008201527f726f206164647265737300000000000000000000000000000000000000000000602082015250565b7f4552433732313a206f776e657220717565727920666f72206e6f6e657869737460008201527f656e7420746f6b656e0000000000000000000000000000000000000000000000602082015250565b7f45524337323155524953746f726167653a2055524920736574206f66206e6f6e60008201527f6578697374656e7420746f6b656e000000000000000000000000000000000000602082015250565b7f4552433732313a206d696e7420746f20746865207a65726f2061646472657373600082015250565b7f45524337323155524953746f726167653a2055524920717565727920666f722060008201527f6e6f6e6578697374656e7420746f6b656e000000000000000000000000000000602082015250565b7f4552433732313a20617070726f76656420717565727920666f72206e6f6e657860008201527f697374656e7420746f6b656e0000000000000000000000000000000000000000602082015250565b7f4f776e61626c653a2063616c6c6572206973206e6f7420746865206f776e6572600082015250565b7f4552433732314d657461646174613a2055524920717565727920666f72206e6f60008201527f6e6578697374656e7420746f6b656e0000000000000000000000000000000000602082015250565b7f4552433732313a20617070726f76616c20746f2063757272656e74206f776e6560008201527f7200000000000000000000000000000000000000000000000000000000000000602082015250565b7f4552433732313a207472616e736665722063616c6c6572206973206e6f74206f60008201527f776e6572206e6f7220617070726f766564000000000000000000000000000000602082015250565b612f9a8161283b565b8114612fa557600080fd5b50565b612fb18161284d565b8114612fbc57600080fd5b50565b612fc881612859565b8114612fd357600080fd5b50565b612fdf816128a5565b8114612fea57600080fd5b5056fea2646970667358221220e96e5aaf2c0c4a1f06b002d2bc10dea274f9651a837b0a5c4d5b45c4636d958664736f6c63430008040033",
  "linkReferences": {},
  "deployedLinkReferences": {}
}